:100000000C94F2000C94DD010C940F010C94D308B5
:100010000C94E8080C940F010C940F010C949801B7
:100020000C940F010C940F010C940F010C940F0110
:100030000C940F010C940F010C940F010C940F0100
:100040000C940F010C940F010C940F010C940F01F0
:100050000C940F010C940F010C940F010C940F01E0
:100060000C940F010C940F0107634236B79BD8A77D
:100070001A39685618AEBAAB558C1D3CB7CC5763CD
:10008000BD6DEDFD753EF6177231BF000000803F7B
:1000900008000000BE922449123EABAAAA2ABECD97
:1000A000CCCC4C3E00000080BEABAAAAAA3E000009
:1000B0000000BF000000803F000000000008417801
:1000C000D3BB4387D1133D190E3CC3BD4282AD2B38
:1000D0003E68EC8276BED98FE1A93E4C80EFFFBE30
:1000E00001C4FF7F3F000000000000407A10F35A77
:1000F00000A0724E18090010A5D4E80000E8764868
:10010000170000E40B54020000CA9A3B000000E113
:10011000F505000080969800000040420F000000A6
:10012000A08601000000102700000000E803000086
:1001300000006400000000000A0000000000010050
:10014000000000002C76D888DC674F0823DFC1DF71
:10015000AE59E1B1B796E5E3E453C63AE651997674
:1001600096E8E6C28426EB898C9B62ED407C6FFCAE
:10017000EFBC9C9F40F2BAA56FA5F490055A2AF7F0
:100180005C936B6CF9676DC11BFCE0E40D47FEF5F9
:1001900020E6B500D0ED902E030094357705008061
:1001A000841E080000204E0A000000C80C333333C0
:1001B000330F986E12831141EF8D2114893BE65560
:1001C00016CFFEE6DB18D1844B381BF77C1D901D43
:1001D000A4BBE424203284725E228100C9F124ECA5
:1001E000A1E53D2711241FBECFEFD8E0DEBFCDBF74
:1001F00012E0A0E0B1E0E6E0F1E302C005900D926C
:10020000A237B107D9F722E0A2E7B2E001C01D9200
:10021000AC38B207E1F70E9478050C9481180C9471
:100220000000EAE7F0E090819F779083ACE7B0E0D0
:100230009C91987F9C939C918770982B9C93808134
:10024000806880830895EAE7F0E08081806480839D
:10025000808184FFFDCF2091780030917900EAE71A
:10026000F0E0908190619083C90108950E9411018E
:100270000E9423010895ACE7B0E01C92EAE7F0E0A9
:10028000108210927B008C9180648C9380818660B8
:1002900080838C918F7D8C9380818068808308958A
:1002A000CF92DF92EF92FF929C01892BC9F06B01F4
:1002B000E12CF12CC701B601052E5AE0660F771F1D
:1002C000881F991F5A95D1F7502D40E050E00E94A9
:1002D0007410CA01B9016C197D098E099F0903C008
:1002E00060E070E0CB01FF90EF90DF90CF90089539
:1002F000CF92DF92EF92FF92009791F06A017B011B
:10030000BC0180E090E00E94CB0DA70196010E9405
:10031000820E20E030E040E85AE30E94820E03C0E3
:1003200060E070E0CB01FF90EF90DF90CF900895F8
:100330001F920F920FB60F9211248F93EF93FF939A
:1003400080917D02813091F480917802811104C006
:1003500081E08093780229C05A9A1092780282E054
:1003600080937D0288E28093B3001FC0823099F4AD
:100370008FEF8093B30052985A9AE898E9E6F0E03C
:10038000808183608083E09AE89A1092B20083E0D3
:1003900080937D020AC088E080937D021092B100B4
:1003A000E898529A5A9A10927702FF91EF918F91A2
:1003B0000F900FBE0F901F9018951F920F920FB6BF
:1003C0000F9211242F933F934F935F938F939F939B
:1003D000EF93FF93E2EBF0E08081108290917D0239
:1003E000933099F489528B3308F075C0E898E9E6A8
:1003F000F0E080818260808380818E7F8083E09ABC
:10040000E89A84E080937D0276C0943041F489526A
:100410008B3308F060C085E080937D026CC095301E
:1004200009F059C0833340F08F3648F48091770249
:100430008F5F809377024FC08F3608F44CC0813AAB
:1004400008F049C0809177028031A8F44FE050E075
:10045000481B510921E030E002C0220F331F4A95AA
:10046000E2F74091750250917602242B352B3093A0
:1004700076022093750290EF980F9031A8F44FE127
:1004800050E0481B510921E030E002C0220F331F29
:100490004A95E2F74091730250917402242B352B58
:1004A000309374022093730290EE980F983080F48A
:1004B00047E250E0481B510921E030E002C0220F22
:1004C000331F4A95E2F790917202292B2093720212
:1004D0008F5F8093770280917702883260F010926C
:1004E000B1001092B200E898529A5A9A109277028C
:1004F00086E080937D02FF91EF919F918F915F91B4
:100500004F913F912F910F900FBE0F901F90189514
:10051000CF93DF93EC0180917D02863009F098C083
:100520004091750250917602252F332720937E0249
:1005300040938002E0917302F09174028F2F99270B
:1005400080937F02E09381026091720270E0240F39
:10055000311D820F931F8E0F911D99276817790700
:1005600009F073C09A01ADECBCEC0E949310969513
:10057000879596958795969587958A839C01220FF6
:10058000331F880F991F880F991F880F991F820F9B
:10059000931F481B590B4B83FF2364F59F013F7743
:1005A00030937402209373020E949310969587955E
:1005B0009695879596958795819588834091730246
:1005C000509174029A010E94931096958795969582
:1005D0008795969587959C01220F331F880F991F49
:1005E000880F991F880F991F820F931F481B590B63
:1005F000498327C09F01ADECBCEC0E9493109695F7
:1006000087959695879596958795888340917302EF
:10061000509174029A010E94931096958795969531
:100620008795969587959C01220F331F880F991FF8
:10063000880F991F880F991F820F931F481B590B12
:10064000498387E080937D0203C089E080937D0227
:1006500080917D02DF91CF910895529A5A9A82E05B
:100660008093B000809370001092B10010927D02D0
:10067000089580917D02882319F087508330F0F42B
:100680001092740210927302109276021092750208
:10069000109272021092780210927702E898529AA1
:1006A0005A988FEF8093B3001092B20081E080934C
:1006B0007D0282E08093B1008BE008958AE0089586
:1006C000CF93DF9386E090E00E94E410EC0184E099
:1006D00090E00E94E4109983888384E090E09D83F9
:1006E0008C831B821A82CE01DF91CF9108951F93D4
:1006F000CF93DF93EC01162F6A817B818C819D81E2
:100700006817790751F4660F771F7D836C838881A2
:1007100099810E94051299838883E881F9818A81F1
:100720009B81E80FF91F10838A819B8101969B832F
:100730008A83DF91CF911F910895CF93DF93EC01CE
:10074000888199810E947C11198218821D821C82E5
:100750001B821A82DF91CF9108952A9800008EBDE6
:1007600000000DB407FEFDCF1EBC00000DB407FE57
:10077000FDCF2A9A8EB508952A9880688EBD000014
:100780000DB407FEFDCF6EBD00000DB407FEFDCF1A
:100790002A9A0895CF93C62F0E94AD0321E030E03E
:1007A00002C0220F331FCA95E2F790E028233923B5
:1007B00081E090E0232B11F480E090E0CF91089548
:1007C000CF93DF938FE00E94AD03682F8DE00E94EE
:1007D000BC036FEF82E10E94BC036CE881E00E94E1
:1007E000BC038FEC97E00197F1F700C000006FE8C1
:1007F00081E00E94BC0381E00E94AD0362E070E0F2
:1008000082E10E94CA030197C9F760E070E082E1CB
:100810000E94CA03892B39F06FEF82E10E94BC036A
:10082000C2E0D0E01BC06FEF82E10E94BC038EE00B
:100830000E94AD03682F8DE00E94BC036BE881E04D
:100840000E94BC0363E070E082E10E94CA03EC01F5
:100850000197C1F76FEF82E10E94BC03CE01DF91E7
:10086000CF91089569E881E00E94BC038FE00E9467
:10087000AD03682F8DE00E94BC036FEF82E10E9400
:10088000BC036DE881E00E94BC0381E00E94AD03DF
:100890008D38D9F70895EF92FF920F931F93CF935E
:1008A000DF937C01F89469E881E00E94BC0381E059
:1008B0000E94AD038938D9F780E10E94AD03682F0B
:1008C0008DE00E94BC0383E10E94AD03082F64E029
:1008D00070E082E10E94CA03019729F565E070E0AB
:1008E00082E10E94CA030197F1F02A981EBC000021
:1008F0000DB407FEFDCF10E0101611067CF4C0E029
:10090000D0E01EBC00000DB407FEFDCF6EB5C701E0
:100910000E9477032196C017D10799F72A9A6FEFA3
:1009200082E10E94BC03DF91CF911F910F91FF9054
:10093000EF900895CF93DF93EC01F89468E881E09D
:100940000E94BC0369E881E00E94BC0381E00E9430
:10095000AD038938D9F78EE00E94AD03682F8DE092
:100960000E94BC036A817B8161157105D9F080E02A
:1009700090E040E89C012A984EBD00000DB407FEAF
:10098000FDCFE881F981E20FF31F20812EBD000029
:100990000DB407FEFDCF2A9A01966A817B818617E6
:1009A000970740F382E20E94BC03DF91CF91089544
:1009B00060E070E081E00E94CA030197C9F768E037
:1009C00081E00E94BC0381E00E94AD03883051F5B4
:1009D00068E881E00E94BC0381E00E94AD03883892
:1009E000D9F769E881E00E94BC0381E00E94AD0371
:1009F0008938D9F760E28CE00E94BC0389E00E944C
:100A0000AD03682F606889E00E94BC0364E086E261
:100A10000E94BC036FEF81E20E94BC036FEF82E192
:100A20000E94BC0308958230910534F08231910513
:100A30002CF081E190E002C082E090E08250682FCB
:100A4000606889E00E94BC030895CF93DF938630ED
:100A5000910544F0EC010D9714F0CCE0D0E0C630E5
:100A6000D10559F465EC81E30E94BC036CE087E397
:100A70000E94BC03C6E0D0E008C063EC81E30E94A2
:100A8000BC036AE087E30E94BC038EE10E94AD03D1
:100A90008F70C295D295D07FDC27C07FDC276C2F6A
:100AA000682B8EE10E94BC03DF91CF910895CF9314
:100AB000DF938A30910580F4EC018DE10E94AD0353
:100AC0008F70C295D295D07FDC27C07FDC276C2F3A
:100AD000682B8DE10E94BC03DF91CF9108958EE1D8
:100AE0000E94AD03682F64608EE10E94BC030895EC
:100AF000CF93DF93CDB7DEB7CE59D1090FB6F894B7
:100B0000DEBF0FBECDBFF8940E949E0C86E791E039
:100B10000E9447130E943B010E942D038CE1E2E2F8
:100B2000F1E0DE01D79601900D928A95E1F78CE114
:100B3000EEE3F1E0DE01AD5ABF4F01900D928A95D0
:100B4000E1F78CE1EAE5F1E0DE01A159BF4F019048
:100B50000D928A95E1F784B18E6284B987B1856080
:100B600087B985B1866085B9459A83E58CBDE8E68D
:100B7000F0E0808183608083EBE6F0E08081806438
:100B80008083ECE6F0E080818062808378942FEFB0
:100B900089E698E1215080409040E1F700C00000D4
:100BA0000E94D80487E090E00E94570589E090E019
:100BB0000E94250582E090E00E9413050E946F05C7
:100BC000DE01A159BF4FC557DF4FB983A883CB586A
:100BD000D040CE018D5A9F4FC357DF4F99838883F2
:100BE000CD58D040D897C157DF4FB983A883CF588D
:100BF000D040825591093C010F2EF7E44F2EF2E0D0
:100C00005F2EF02D0E9439038B3049F081E891E08E
:100C10009F938F930E942A130F900F90F3CF89E92F
:100C200091E00E944713CE01C3960E94880287304C
:100C300011F58CA91F928F938BA9282F082E000CD9
:100C4000330B3F938F9385EA91E09F938F930E949C
:100C50002A138EA91F928F938DA91F928F938BEBCE
:100C600091E09F938F930E942A130FB6F894DEBFF2
:100C70000FBECDBF15C0893049F480ED91E09F9340
:100C80008F930E942A130F900F900AC0883041F46E
:100C900085EE91E09F938F930E942A130F900F90FF
:100CA00080E00E943601CB56DF4F99838883C55977
:100CB000D04060EF75E50E945001CF56DF4F68834A
:100CC00079838A839B83C159D04040E050E060EA39
:100CD00070E4CB56DF4F88819981C559D0400E947E
:100CE0007801C556DF4F688379838A839B83CB590C
:100CF000D0400F2EFEEDAF2EF7E3BF2EF1E3CF2E47
:100D0000F0ECDF2EF02D12E4E12E14E3F12E09EECB
:100D100012E420E030E044EC53E4CF56DF4F68812A
:100D200079818A819B81C159D0400E94FD08BEE330
:100D3000BF9327EB2F938BE48F9397EC9F93A0E4C3
:100D4000AF93BBE1BF9324E62F938AE58F9323E211
:100D500033EA40E050E0CF56DF4F688179818A81E5
:100D60009B81C159D0400E9456090F2EF2E49F2E5C
:100D7000F02D9F920F2EFAEA8F2EF02D8F921F9258
:100D80001F929F926894332432F83F921F921F92D1
:100D9000C457DF4F9881CC58D0409F93C557DF4F41
:100DA000A881CB58D040AF93C257DF4FB881CE58FF
:100DB000D040BF93C357DF4F2881CD58D0402F93E9
:100DC000C057DF4F8881C059D0408F93C157DF4F44
:100DD0009881CF58D0409F931F920F2EF7E02F2E6F
:100DE000F02D2F929F92A2E8AF931F921F92B1E431
:100DF000BF9320EA2F931F921F926DA970E080E0AD
:100E000090E00E94CD0D9F938F937F936F936BA97A
:100E1000062E000C770B880B990B0E94CD0D9F932B
:100E20008F937F936F9320E030E044EC53E4CF56F0
:100E3000DF4F688179818A819B81C159D0400E94AE
:100E4000E70AC956DF4F688379838A839B83C75932
:100E5000D0400FB6F894DEBF0FBECDBF9F928F92E9
:100E60001F921F929F923F921F921F92C457DF4F73
:100E70009881CC58D0409F93C557DF4FA881CB585D
:100E8000D040AF93C257DF4FB881CE58D040BF9308
:100E9000C357DF4F2881CD58D0402F93C057DF4F25
:100EA0008881C059D0408F93C157DF4F9881CF5868
:100EB000D0409F931F922F929F92A2E8AF931F92D0
:100EC0001F92B1E4BF9320EA2F931F921F926DA946
:100ED00070E080E090E00E94CD0D9F938F937F9310
:100EE0006F936BA9062E000C770B880B990B0E9451
:100EF000CD0D9F938F937F936F938EE38F9397EB9B
:100F00009F93ABE4AF93B7ECBF9320E42F938BE1B7
:100F10008F9394E69F93AAE5AF9323E233EA40E0F0
:100F200050E0CF56DF4F688179818A819B81C1591A
:100F3000D0400E94800B6B017C010FB6F894DEBF9D
:100F40000FBECDBF4AE0B301CB56DF4F88819981F8
:100F5000C559D0400E94D412ADEFB1E0BF93AF931A
:100F60000E942A137F926F920E942A138BEF91E0C6
:100F70000E9447132AE0A301CF56DF4F6881798191
:100F80008A819B81C159D0400E94DF1282E092E0A9
:100F90009F938F930E942A137F926F920E942A132D
:100FA0008BEF91E00E944713830123E043E0C55695
:100FB000DF4F688179818A819B81CB59D0400E9423
:100FC000C41087E092E09F938F930E942A137F9230
:100FD0006F920E942A138BEF91E00E9447132AE040
:100FE000A301C956DF4F688179818A819B81C759E6
:100FF000D0400E94DF128CE092E09F938F930E947A
:101000002A137F926F920E942A138BEF91E00E9425
:10101000471325E043E0C701B6010E94C41087E1F1
:1010200092E09F938F930E942A137F926F920E9467
:101030002A138BEF91E00E9447132AE0A301C956BF
:10104000DF4F688179818A819B81C759D0400E9496
:10105000DF1282E292E09F938F930E942A137F9285
:101060006F920E942A138BEF91E00E94471325E0B4
:1010700043E0C701B6010E94C4108FE292E09F9343
:101080008F930E942A137F926F920E942A138BEFF4
:1010900091E00E9447130E9432040FB6F894DEBF1D
:1010A0000FBECDBF8091790290917A02019741F0F5
:1010B00080917B0290917C02019709F064C03CC052
:1010C000F8940E9460036C010E944B048CE392E050
:1010D0009F938F930E942A130F900F90E12CF12C75
:1010E000D601ED91FC91EE0DFF1D80811F928F9333
:1010F0005F924F920E942A13BFEFEB1AFB0A0F90E8
:101100000F900F900F9024E0E216F10449F78AE067
:1011100090E00E944013C6010E949D030E94320489
:10112000789410927A021092790238C080917B02F2
:1011300090917C02019739F5F8948AE492E00E943C
:1011400047130E9460037C016BA90E9477036CA97E
:10115000C7010E9477036DA9C7010E9477036EA99A
:10116000C7010E947703C7010E949A04C7010E9429
:101170009D030E94E0030E94320410927C021092B0
:101180007B0278940BC082E08A95F1F700C08091D1
:10119000790290917A02019749F692CF86E592E022
:1011A0000E9447132FCD1F920F920FB60F9211245A
:1011B0008F939F93F89481E090E090937A028093CC
:1011C00079029F918F910F900FBE0F901F901895ED
:1011D0001F920F920FB60F9211248F939F93F89442
:1011E00081E090E090937C0280937B029F918F91AD
:1011F0000F900FBE0F901F9018954F925F926F92B5
:101200007F92AF92BF92CF92DF92EF92FF920F93B5
:101210001F93CF93DF93CDB7DEB728970FB6F8941F
:10122000DEBF0FBECDBF2B013C0129833A834B8328
:101230005C83ED82FE820F831887A601950160E032
:1012400070E080E89FE30E94230D6B017C012981FF
:101250003A814B815C816D817E818F8198850E946E
:10126000230DA70196010E94EF0E6B017C01C301C3
:10127000B2010E94CD0DA70196010E94820E0E942C
:10128000950D28960FB6F894DEBF0FBECDBFDF9147
:10129000CF911F910F91FF90EF90DF90CF90BF9073
:1012A000AF907F906F905F904F9008954F925F92B4
:1012B0006F927F92AF92BF92CF92DF92EF92FF92A6
:1012C0000F931F93CF93DF93CDB7DEB728970FB659
:1012D000F894DEBF0FBECDBF29013A01ED82FE8238
:1012E0000F8318870E94CD0D69837A838B839C833B
:1012F000C301B2010E94CD0D9B01AC0169817A81CD
:101300008B819C810E94230D2B013C01298D3A8DFC
:101310004B8D5C8D0E941E0D8823ACF42D8D3E8D6F
:101320004F8D58A1C301B2010E947D0E18167CF4A6
:10133000A6019501C301B2010E94EF0EA801970119
:101340000E94820E07C060E070E0CB0103C060E045
:1013500070E0CB0128960FB6F894DEBF0FBECDBF6C
:10136000DF91CF911F910F91FF90EF90DF90CF9081
:10137000BF90AF907F906F905F904F9008952F92A5
:101380003F924F925F926F927F928F929F92AF9215
:10139000BF92CF92DF92EF92FF920F931F93CF9362
:1013A000DF93CDB7DEB760970FB6F894DEBF0FBE00
:1013B000CDBF101611060CF0D4C0BC82AB82DA820D
:1013C000C9822D873E874F87588B2B013C01D7015F
:1013D0002D913D914D915C910E947D0E18160CF05F
:1013E000C5C05701B4E0AB0EB11CC12CD12CEFEF3E
:1013F000CE1ADE0A0C151D0509F4BDC0D5016D918C
:101400007D918D919D915D01A30192010E941E0D20
:1014100088236CF3BAC08601000F111F000F111F43
:10142000E981FA81E00FF11F80819181A281B3816E
:101430008D839E83AF83B887180194E0291A310801
:10144000F701E00FF11F80809180A280B380F70147
:10145000E20DF31D2081318142815381C501B40128
:101460000E94B10C69877A878B879C87A5019401BC
:10147000C301B2010E94B10C4B015C01E981FA8108
:10148000E20DF31D20813181428153816D817E8186
:101490008F8198850E94B10C29853A854B855C85A2
:1014A0000E94230DA50194010E94820E2D813E8190
:1014B0004F8158850E94B20C6B017C01EB81FC814D
:1014C000E00FF11F4080518062807380EB81FC81CE
:1014D000E20DF31D2081318142815381C301B201AC
:1014E0000E94B10C29853A854B855C850E94230DAD
:1014F000A50194010E94820EA30192010E94B20CE8
:10150000A70196010E94B10C4B015C012DA13EA1E7
:101510004FA158A56D857E858F8598890E94B10C55
:101520009B01AC01C501B4010E94820E4B015C011C
:101530002DA13EA14FA158A569A57AA58BA59CA573
:101540000E94B10C9B01AC01C501B4010E94230DA6
:10155000A70196010E94B20C562F472F382F292F32
:1015600019C050E040E030E82FEB14C050E040E0FC
:1015700030E82FEB0FC050E040E030E82FEB0AC01E
:1015800050E040E030E82FEB05C0C114D10409F071
:1015900042CFF6CF652F742F832F922F60960FB610
:1015A000F894DEBF0FBECDBFDF91CF911F910F9199
:1015B000FF90EF90DF90CF90BF90AF909F908F9073
:1015C0007F906F905F904F903F902F9008952F9253
:1015D0003F924F925F926F927F928F929F92AF92C3
:1015E000BF92CF92DF92EF92FF920F931F93CF9310
:1015F000DF93CDB7DEB728970FB6F894DEBF0FBEE6
:10160000CDBF7DA86EA85FA848AC29AC3AAC8BAC26
:101610009CAC0E94FD0869837A838B839C839F9294
:101620008F923F922F924F925F926F927F92ABA8D0
:10163000BCA8C9A8DAA8EFA4F8A80DA51EA529A1E1
:101640003AA14BA15CA16D8D7E8D8F8D98A10E94DA
:10165000BF090FB6F894DEBF0FBECDBF6D837E838A
:101660008F8398879F928F923F922F924F925F9293
:101670006F927F92ABA8BCA8C9A8DAA8EFA4F8A87B
:101680000DA51EA529A53AA54BA55CA56DA17EA11A
:101690008FA198A50E94BF090FB6F894DEBF0FBEB8
:1016A000CDBF2D813E814F8158850E94230D4B0176
:1016B0005C0169817A818B819C810E94CD0D9B01A7
:1016C000AC01C501B4010E94820E0E94950D2896BE
:1016D0000FB6F894DEBF0FBECDBFDF91CF911F9143
:1016E0000F91FF90EF90DF90CF90BF90AF909F90C1
:1016F0008F907F906F905F904F903F902F900895C4
:101700002F923F924F925F926F927F928F929F9211
:10171000AF92BF92CF92DF92EF92FF920F931F93FF
:10172000CF93DF93CDB7DEB764970FB6F894DEBFE3
:101730000FBECDBF6D837E838F83988729873A87BD
:101740004B875C87ED86FE860F87188BA98ABA8A3D
:10175000CB8ADC8A2A969FAC2A972B968FAC2B9744
:101760002C967FAC2C972D966FAC2D972E965FAC58
:101770002E972F964FAC2F9760963FAC609761964F
:101780002FAC61972F923F924F925F926F927F9210
:101790008F929F922996AEACBFAC29972796CEAC7C
:1017A000DFAC27972596EEACFFAC259723960EADC0
:1017B0001FAD23972DA93EA94FA958AD69A97AA9B4
:1017C0008BA99CA90E94BF090FB6F894DEBF0FBE7B
:1017D000CDBF69837A838B839C832F923F924F92F4
:1017E0005F926F927F928F929F922996AEACBFAC20
:1017F00029972796CEACDFAC27972596EEACFFACA9
:10180000259723960EAD1FAD239721962CAD3DADA8
:101810004EAD5FAD219769AD7AAD8BAD9CAD0E94A9
:10182000BF090FB6F894DEBF0FBECDBF29813A8144
:101830004B815C810E94230D2B013C016D817E81D7
:101840008F8198850E94CD0D9B01AC01C301B2012F
:101850000E94820E0E94950D0E94CD0D2B013C012D
:1018600069857A858B859C850E94CD0D9B01AC0195
:10187000C301B2010E94230D2B013C019B01AC016D
:1018800069A57AA58BA59CA50E947D0E1816DCF48F
:10189000A30192016DA57EA58FA598A90E941E0D9A
:1018A0008823ACF429893A894B895C89C301B20148
:1018B0000E94EF0E9B01AC016D857E858F85988916
:1018C0000E94820E07C060E070E0CB0103C060E0C0
:1018D00070E0CB0164960FB6F894DEBF0FBECDBFAB
:1018E000DF91CF911F910F91FF90EF90DF90CF90FC
:1018F000BF90AF909F908F907F906F905F904F9030
:101900003F902F900895CF93C82F8A3019F48DE01F
:101910000E94830CE0ECF0E0808185FFFDCFC09356
:10192000C60080E090E0CF910895E0ECF0E0808187
:101930008823ECF78091C60090E008951092C500CE
:1019400083E38093C40088E18093C100E6E8F2E07D
:1019500084E191E09383828386E091E091838083A8
:1019600008955058BB27AA270E94C90C0C94430E17
:101970000E94350E38F00E943C0E20F039F49F3F53
:1019800019F426F40C94320E0EF4E095E7FB0C9457
:101990002C0EE92F0E94540E58F3BA1762077307F2
:1019A0008407950720F079F4A6F50C94760E0EF4D2
:1019B000E0950B2EBA2FA02D0B01B90190010C015F
:1019C000CA01A0011124FF27591B99F0593F50F477
:1019D000503E68F11A16F040A22F232F342F4427CF
:1019E000585FF3CF469537952795A795F0405395C7
:1019F000C9F77EF41F16BA0B620B730B840BBAF097
:101A00009150A1F0FF0FBB1F661F771F881FC2F701
:101A10000EC0BA0F621F731F841F48F48795779515
:101A20006795B795F7959E3F08F0B0CF9395880FCF
:101A300008F09927EE0F9795879508950E94080E54
:101A400008F481E008950E94370D0C94430E0E9423
:101A50003C0E58F00E94350E40F029F45F3F29F00B
:101A60000C942C0E51110C94770E0C94320E0E9493
:101A7000540E68F39923B1F3552391F3951B550B3D
:101A8000BB27AA2762177307840738F09F5F5F4F51
:101A9000220F331F441FAA1FA9F335D00E2E3AF090
:101AA000E0E832D091505040E695001CCAF72BD0A8
:101AB000FE2F29D0660F771F881FBB1F26173707F9
:101AC0004807AB07B0E809F0BB0B802DBF01FF272B
:101AD00093585F4F3AF09E3F510578F00C942C0ECE
:101AE0000C94770E5F3FE4F3983ED4F38695779598
:101AF0006795B795F7959F5FC9F7880F911D9695E4
:101B0000879597F90895E1E0660F771F881FBB1F3F
:101B1000621773078407BA0720F0621B730B840BEC
:101B2000BA0BEE1F88F7E09508950E949C0D68940B
:101B3000B1110C94770E08950E945C0E88F09F57A7
:101B400098F0B92F9927B751B0F0E1F0660F771FE1
:101B5000881F991F1AF0BA95C9F714C0B13091F0D7
:101B60000E94760EB1E008950C94760E672F782FC0
:101B70008827B85F39F0B93FCCF38695779567959C
:101B8000B395D9F73EF490958095709561957F4F08
:101B90008F4F9F4F0895E89409C097FB3EF49095AE
:101BA0008095709561957F4F8F4F9F4F9923A9F036
:101BB000F92F96E9BB279395F695879577956795C5
:101BC000B795F111F8CFFAF4BB0F11F460FF1BC009
:101BD0006F5F7F4F8F4F9F4F16C0882311F096E99C
:101BE00011C0772321F09EE8872F762F05C066234A
:101BF00071F096E8862F70E060E02AF09A95660F03
:101C0000771F881FDAF7880F9695879597F90895BB
:101C1000990F0008550FAA0BE0E8FEEF16161706FD
:101C2000E807F907C0F012161306E407F50798F065
:101C3000621B730B840B950B39F40A2661F0232B7E
:101C4000242B252B21F408950A2609F4A140A695FA
:101C50008FEF811D811D089597F99F6780E870E0DF
:101C600060E008959FEF80EC089500240A94161612
:101C7000170618060906089500240A94121613067A
:101C8000140605060895092E0394000C11F4882308
:101C900052F0BB0F40F4BF2B11F460FF04C06F5F24
:101CA0007F4F8F4F9F4F089557FD9058440F551FFA
:101CB00059F05F3F71F04795880F97FB991F61F0CE
:101CC0009F3F79F087950895121613061406551F45
:101CD000F2CF4695F1DF08C0161617061806991FB1
:101CE000F1CF86957105610508940895E894BB27A6
:101CF00066277727CB0197F908950E94080E08F40C
:101D00008FEF08950E94950E0C94430E0E94350E9D
:101D100038F00E943C0E20F0952311F00C942C0E0C
:101D20000C94320E11240C94770E0E94540E70F312
:101D3000959FC1F3950F50E0551F629FF001729F70
:101D4000BB27F00DB11D639FAA27F00DB11DAA1F7F
:101D5000649F6627B00DA11D661F829F2227B00DCC
:101D6000A11D621F739FB00DA11D621F839FA00D57
:101D7000611D221F749F3327A00D611D231F849FA7
:101D8000600D211D822F762F6A2F11249F575040FE
:101D90009AF0F1F088234AF0EE0FFF1FBB1F661F79
:101DA000771F881F91505040A9F79E3F510580F042
:101DB0000C942C0E0C94770E5F3FE4F3983ED4F312
:101DC000869577956795B795F795E7959F5FC1F7E6
:101DD000FE2B880F911D9695879597F90895FA0126
:101DE000EE0FFF1F309621053105A1F16115710538
:101DF00061F48038BFE39B0749F16894903881050E
:101E000061F08038BFEF9B0741F099234AF5FF3F0F
:101E1000E1053105210519F1E8940894E795D90108
:101E2000AA2329F4AB2FBE2FF85FD0F310C0FF5FB9
:101E300070F4A695E0F7F73950F019F0FF3A38F44E
:101E40009F779F930DD00F9007FC9058089546F010
:101E50000C94320E60E070E080E89FE308954FE755
:101E60009F775F934F933F932F930E94EA0F2F9199
:101E70003F914F915F910E94820E0C94470F29F47D
:101E800016F00C942C0E0C94760E0C94320E0E94CC
:101E90005C0EA8F39638A0F707F80F92E8942BE3AE
:101EA0003AEA48EB5FE70E94980E0F920F920F926A
:101EB0004DB75EB70F920E943210E8E6F0E00E9444
:101EC000790F4F915F91EF91FF91E595EE1FFF1F05
:101ED00049F0FE57E0684427EE0F441FFA95E1F7FA
:101EE0004195550B0E94AC0F0F9007FE0C94A00F6C
:101EF0000895DF93CF931F930F93FF92EF92DF929A
:101F00007B018C01689406C0DA2EEF010E94950EC9
:101F1000FE01E894A5912591359145915591A6F33F
:101F2000EF010E94C90CFE019701A801DA9469F73C
:101F3000DF90EF90FF900F911F91CF91DF91089567
:101F40009B01AC0160E070E080E89FE30C94230DFE
:101F50000C942C0E0C9466100E945C0ED8F39923FE
:101F6000C9F3940F511DA3F39150504094F059F0D0
:101F7000882332F0660F771F881F91505040C1F7B9
:101F80009E3F51052CF7880F911D9695879597F9DF
:101F900008955F3FACF0983E9CF0BB2786957795FF
:101FA0006795B79508F4B1609395C1F7BB0F58F7E3
:101FB00011F460FFE8CF6F5F7F4F8F4F9F4FE3CFEC
:101FC0000C94770E16F00C9466100C94320E6894F4
:101FD0000C942C0E0E945C0EA8F39923C1F3AEF36F
:101FE000DF93CF931F930F93FF92C92FDD27882391
:101FF0002AF02197660F771F881FDAF720E030E07C
:1020000040E85FEB9FE3883920F0803E38F021966E
:102010008F770E94B20CE0E9F0E004C00E94B20C9D
:10202000EDEBF0E00E94790F8B01BE01EC01FB2E7D
:102030006F5771097595771F880B990B0E94CD0D0D
:1020400028E132E741E35FE30E94950EAF2D98014E
:10205000AE01FF900F911F91CF91DF910E94C90CAB
:102060000C94430EFA01DC01AA0FBB1F9B01AC01CB
:10207000BF5728F4222733274427507820C0B75170
:1020800090F4AB2F0024469537952795011CA39516
:10209000D2F3002071F0220F331F441FB395DAF3FF
:1020A0000ED00C94B10C61307105A0E88A07B946D6
:1020B00030F49B01AC01662777278827907830960B
:1020C00021F0208331834283538308959F3F31F071
:1020D000915020F4879577956795B795880F911D56
:1020E0009695879597F90895052E97FB1EF4009411
:1020F0000E948B1057FD07D00E94A21007FC03D04E
:102100004EF40C948B1050954095309521953F4F8F
:102110004F4F5F4F089590958095709561957F4FD3
:102120008F4F9F4F0895A29FB001B39FC001A39FFF
:10213000700D811D1124911DB29F700D811D112400
:10214000911D0895A1E21A2EAA1BBB1BFD010DC013
:10215000AA1FBB1FEE1FFF1FA217B307E407F50757
:1021600020F0A21BB30BE40BF50B661F771F881F33
:10217000991F1A9469F760957095809590959B01C9
:10218000AC01BD01CF010895EF920F931F93CF9340
:10219000DF93E80147FD02C034E001C034E1042EC2
:1021A000000C550B57FF03C0519541955109E32E83
:1021B000022F242FAE010E945815CE01DF91CF913E
:1021C0001F910F91EF9008950F931F93CF93DF937B
:1021D0008230910510F482E090E0E0918402F09169
:1021E000850220E030E0A0E0B0E0309719F14081B6
:1021F00051810281138148175907C8F08417950748
:1022000069F4109731F012960C93129713961C9361
:1022100027C0009384021093850222C02115310546
:1022200019F04217530718F49A01BD01EF01DF01BD
:10223000F801DBCF21153105F9F0281B390B2430CB
:10224000310580F48A819B816115710521F0FB01C4
:102250009383828304C09093850280938402FE015D
:10226000329644C0FE01E20FF31F819391932250F6
:102270003109398328833AC0209182023091830248
:10228000232B41F42091020130910301309383020A
:102290002093820220910001309101012115310526
:1022A00041F42DB73EB74091040150910501241B24
:1022B000350BE0918202F0918302E217F307A0F45C
:1022C0002E1B3F0B2817390778F0AC014E5F5F4F8C
:1022D0002417350748F04E0F5F1F50938302409339
:1022E00082028193919302C0E0E0F0E0CF01DF91A0
:1022F000CF911F910F910895CF93DF93009709F429
:1023000081C0FC01329713821282A0918402B091A5
:102310008502109781F420813181820F931F2091D3
:102320008202309183022817390751F5F093830216
:10233000E093820267C0ED0120E030E0CE17DF07B6
:1023400040F44A815B819E0141155105F1F0EA019B
:10235000F5CFD383C28340815181840F951FC81765
:10236000D90759F488819981840F951F029691832A
:1023700080838A819B81938382832115310529F48F
:10238000F0938502E09384023DC0E901FB83EA8378
:1023900049915991C40FD51FEC17FD0761F4808155
:1023A0009181840F951F0296E90199838883828128
:1023B00093819B838A83E0E0F0E012968D919C915B
:1023C0001397009719F0FD01DC01F7CF8D919C91D7
:1023D00011979D012E5F3F4F820F931F2091820224
:1023E000309183022817390769F4309729F4109245
:1023F00085021092840202C013821282B09383027B
:10240000A0938202DF91CF910895A0E0B0E0EBE0CD
:10241000F2E10C944E18EC01009721F4CB010E94DC
:10242000E410B4C0FC01E60FF71F9C0122503109F3
:10243000E217F30708F4A8C0D9010D911C91119778
:1024400006171707B0F00530110508F49BC0C80146
:1024500004978617970708F495C002501109061BC8
:10246000170B019311936D937C93CF010E947C1104
:1024700089C05B01A01AB10A4C01800E911EA09187
:102480008402B0918502612C712CE12CF12C109703
:1024900009F446C08D919C911197A815B905B1F525
:1024A0006C0142E0C40ED11CCA14DB0478F14C016B
:1024B0008A189B08640142E0C40ED11C1296BC909D
:1024C00012971396AC91B5E0CB16D10440F0B282CE
:1024D000A38391828082D9016D937C9309C00E5FA2
:1024E0001F4F800F911FF90191838083EB2DFA2FED
:1024F000E114F10431F0D7011396FC93EE93129797
:1025000041C0F0938502E09384023CC068167906CE
:1025100008F43C017D0112960D90BC91A02DB7CF1F
:10252000809182029091830288169906E1F46616E2
:102530007706C8F48091000190910101009741F461
:102540008DB79EB74091040150910501841B950BF6
:10255000E817F907C8F4F0938302E0938202F901C7
:10256000718360830FC0CB010E94E4107C0100974F
:1025700059F0A801BE010E94CB12CE010E947C112D
:10258000C70104C0CE0102C080E090E0CDB7DEB745
:10259000EEE00C946A18FB01DC0102C001900D9280
:1025A00041505040D8F70895BB274A3031F4992361
:1025B00022F4BDE2909581959F4F0C941113BB2797
:1025C0002A3051F4992342F4BDE29095809570959C
:1025D00061957F4F8F4F9F4F0C94EF12BB27FA01ED
:1025E000A62F6217710581059105330B30FB66F04C
:1025F000AA27660F771F881F991FAA1FA21710F01E
:10260000A21B63953850A9F7A05DAA3308F0A95D15
:10261000A19336F7B111B1931082CA010C94A0179F
:10262000BB27FB015527AA27880F991FAA1FA417AC
:1026300010F0A41B83955051B9F7A05DAA3308F0A0
:10264000A95DA193009779F7B111B1931192CB01D4
:102650000C94A017A0E0B0E0E0E3F3E10C945A186A
:10266000AE014B5F5F4FFA0161917191AF018091B3
:102670008802909189020E947713E2E00C94761808
:1026800060918802709189020E94B01708950F939B
:102690001F93CF93DF93E0918802F0918902238109
:1026A00021FF1BC08C01D0E0C0E0F80181918F01B7
:1026B0006091880270918902DB011896ED91FC917E
:1026C0001997882331F00995892B79F3DFEFCFEF44
:1026D000ECCF8AE00995892B19F08FEF9FEF02C0AC
:1026E0008D2F9C2FDF91CF911F910F910895ABE01B
:1026F000B0E0EDE7F3E10C944A186C017B018A012C
:10270000FC0117821682838181FFCCC1CE01019624
:102710003C01F6019381F70193FD859193FF81912F
:102720007F01882309F4BAC1853239F493FD85917C
:1027300093FF81917F01853229F4B60190E00E94D8
:10274000B017E7CF912C212C312CFFE1F315D8F0F5
:102750008B3279F038F4803279F08332A1F4232D72
:1027600020611DC08D3261F0803369F4232D21601A
:1027700016C0832D8260382EE32DE4603E2E2AC0E1
:10278000F32DF8601DC037FC2DC020ED280F2A3036
:1027900040F08E32B9F436FC81C1232D2064322EF4
:1027A00019C036FE06C08AE0989E200D1124922E94
:1027B00011C0EAE02E9E200D1124222EF32DF0628E
:1027C0003F2E08C08C3621F4832D8068382E02C03D
:1027D000883641F4F70193FD859193FF81917F0144
:1027E0008111B3CF982F9F7D9554933028F40C5FBF
:1027F0001F4F9FE399830DC0833631F0833771F00B
:10280000833509F059C021C0F801808189830E5FAA
:102810001F4F88248394912C530113C02801F2E0A8
:102820004F0E511CF801A080B18036FE03C0692D07
:1028300070E002C06FEF7FEFC5010E9495174C0159
:102840008201F32DFF773F2E16C0280122E0420EB1
:10285000511CF801A080B18036FE03C0692D70E0E4
:1028600002C06FEF7FEFC5010E948A174C01F32D64
:10287000F0683F2E820133FC1BC0822D90E0881649
:102880009906B0F4B60180E290E00E94B0172A9455
:10289000F4CFF50137FC859137FE81915F01B601D8
:1028A00090E00E94B01721102A9421E0821A91082A
:1028B0008114910471F7E8C0843611F0893641F52E
:1028C000F80137FE07C060817181828193810C5FBE
:1028D0001F4F08C060817181072E000C880B990B77
:1028E0000E5F1F4FF32DFF763F2E97FF09C0909587
:1028F0008095709561957F4F8F4F9F4FF0683F2E69
:102900002AE030E0A3010E94EC17882E861845C00B
:10291000853731F4232D2F7EB22E2AE030E025C0FA
:10292000932D997FB92E8F36C1F018F4883579F040
:10293000B5C0803719F0883721F0B0C0E92FE061C9
:10294000BE2EB4FE0DC0FB2DF460BF2E09C034FEB8
:102950000AC0292F2660B22E06C028E030E005C04C
:1029600020E130E002C020E132E0F801B7FE07C00C
:1029700060817181828193810C5F1F4F06C06081ED
:10298000718180E090E00E5F1F4FA3010E94EC1761
:10299000882E8618FB2DFF773F2E36FE0DC0232D87
:1029A0002E7FA22E891458F434FE0BC032FC09C0CD
:1029B000832D8E7EA82E05C0B82CA32C03C0B82C66
:1029C00001C0B92CA4FE0FC0FE01E80DF11D8081ED
:1029D000803321F49A2D997EA92E09C0A2FE06C04B
:1029E000B394B39404C08A2D867809F0B394A3FC01
:1029F00011C0A0FE06C0B21488F4280C922C9B18BB
:102A00000EC0B21460F4B60180E290E00E94B017EC
:102A1000B394F7CFB21418F42B1802C0982C212CC1
:102A2000A4FE10C0B60180E390E00E94B017A2FEA1
:102A300017C0A1FC03C088E790E002C088E590E0E1
:102A4000B6010CC08A2D867859F0A1FE02C08BE237
:102A500001C080E2A7FC8DE2B60190E00E94B017B1
:102A6000891438F4B60180E390E00E94B0179A947C
:102A7000F7CF8A94F301E80DF11D8081B60190E053
:102A80000E94B0178110F5CF222009F442CEB60182
:102A900080E290E00E94B0172A94F6CFF60186817A
:102AA000978102C08FEF9FEF2B96E2E10C9466189E
:102AB000A9E0B0E0EEE5F5E10C9450186A01122FA0
:102AC000B02E2BE3201720F0FF24F394F00E02C069
:102AD0002CE3F22E0F2D27E0AE014F5F5F4F0E94D7
:102AE000B216BC014981842F8970813031F0E1FC3C
:102AF00006C0E0FE06C090E205C09DE203C09BE276
:102B000001C090E05E2D507143FF3CC0911102C0A6
:102B100083E001C084E0811718F4212F281B01C035
:102B200020E051110BC0F601822F30E2882319F00A
:102B300031938150FBCFC20ED11C20E0992329F0A4
:102B4000D6019C93F60131966F01C6010396E2FE11
:102B50000AC03EE4D6013C9341E411964C93119790
:102B600012963C9306C03EE6F601308341E641836F
:102B70003283FC01322F40E2332309F442C04193F7
:102B80003150FACF42FF44C0911102C083E001C02E
:102B900084E0811718F4212F281B01C020E0511177
:102BA0000BC0F601822F30E2882319F03193815057
:102BB000FBCFC20ED11C20E0992329F0D6019C93B3
:102BC000F60131966F01C6010396E2FE0BC039E4AF
:102BD000D6013C933EE411963C93119736E412964D
:102BE0003C9307C039E6F60130833EE6318336E692
:102BF0003283FC01322F40E2332319F041933150EC
:102C0000FBCFFC01E20FF11D10828EEF9FEFA6C0FB
:102C100021E030E0911102C020E030E016161706E6
:102C20001CF4FB01319602C0E1E0F0E02E0F3F1FE3
:102C3000BB2021F0EB2DF0E0319602C0E0E0F0E0A7
:102C40002E0F3F1FE12FF0E02E173F071CF4121B41
:102C5000212F01C020E08E2D887159F4F601822FBA
:102C600030E2882319F031938150FBCFC20ED11C82
:102C700020E0992329F0D6019C93F60131966F014B
:102C800051110BC0F601822F90E3882319F0919324
:102C90008150FBCFC20ED11C20E00F2D060F9A8170
:102CA000342F307144FF03C0913309F401501016E2
:102CB00024F4093018F008E001C001E0AB0177FF0F
:102CC00002C040E050E0FB01E41BF50BA1E0B0E0E6
:102CD000AC0FBD1FEA0FFB1F8EE2A82E4B01801A1E
:102CE00091080B2D10E01195019511094F3FBFEF91
:102CF0005B0721F4D601AC9211966D01641775073C
:102D00002CF08416950614F4818101C080E34150B3
:102D100051093196D60111967D014017510724F0D3
:102D2000D6018C936701E2CF6417750739F49633A7
:102D300020F4953319F4311101C081E3F601808349
:102D4000F701822F90E2882319F091938150FBCFF5
:102D5000F701E20FF11D108280E090E02996ECE08F
:102D60000C946C18283008F027E03327DA01990F0B
:102D7000311D87FD916000966105710539F432605F
:102D80002E5F3D9330E32A95E1F708959F3F30F0A1
:102D900080387105610509F03C5F3C5F3D939130DF
:102DA00008F08068911DDF93CF931F930F93FF92DC
:102DB000EF92192F987F9695E92F96959695E90FA2
:102DC000FF27EC5BFE4F99273327EE24FF24A70152
:102DD000E70105900894079428F4360FE71EF81EC3
:102DE000491F511D660F771F881F991F0694A1F771
:102DF0000590079428F4E70EF81E491F561FC11DC1
:102E0000770F881F991F661F0694A1F705900794F6
:102E100028F4F80E491F561FC71FD11D880F991F90
:102E2000661F771F0694A1F70590079420F4490FB9
:102E3000561FC71FD81F990F661F771F881F06943C
:102E4000A9F784911095177041F0D695C7955795BD
:102E50004795F794E7941A95C1F7EAEEF0E0689485
:102E60001590159135916591959105907FE2739537
:102E7000E118F10A430B560BC90BD009C0F7E10C5E
:102E8000F11E431F561FC91FD01D7EF4703311F46D
:102E90008A95E6CFE894015030F0080F0AF4002735
:102EA000021708F4202F2395022F7A3328F079E3B4
:102EB0007D932A95E9F710C07D932A9589F60694AB
:102EC00097956795379517951794E118F10A430B75
:102ED000560BC90BD00998F023957E9173957A33E0
:102EE00008F070E37C932013B8F77E9170617D93B6
:102EF00030F0839571E37D9370E32A95E1F7112417
:102F0000EF90FF900F911F91CF91DF91992787FD4F
:102F100090950895FC010590615070400110D8F71C
:102F2000809590958E0F9F1F0895FC016150704011
:102F300001900110D8F7809590958E0F9F1F0895EE
:102F4000DC01FC01672F71917723E1F7329704C010
:102F50007C916D9370836291AE17BF07C8F308959B
:102F60000F931F93CF93DF93FB01238121FD03C0B8
:102F70008FEF9FEF2CC022FF16C04681578124811E
:102F800035814217530744F4A081B1819D012F5F21
:102F90003F4F318320838C93268137812F5F3F4FB2
:102FA0003783268314C08B01EC01FB010084F1857B
:102FB000E02D0995892BE1F6D80116968D919C910B
:102FC0001797019617969C938E931697CE01DF91D3
:102FD000CF911F910F910895FA01AA27283051F13E
:102FE000203181F1E8946F936E7F6E5F7F4F8F4F3A
:102FF0009F4FAF4FB1E03ED0B4E03CD0670F781F99
:10300000891F9A1FA11D680F791F8A1F911DA11D7D
:103010006A0F711D811D911DA11D20D009F46894B6
:103020003F912AE0269F11243019305D3193DEF65E
:10303000CF010895462F4770405D4193B3E00FD014
:10304000C9F7F6CF462F4F70405D4A3318F0495DFF
:1030500031FD4052419302D0A9F7EACFB4E0A695E2
:103060009795879577956795BA95C9F70097610504
:10307000710508959B01AC010A2E0694579547955A
:1030800037952795BA95C9F7620F731F841F951F4F
:10309000A01D08952F923F924F925F926F927F9260
:1030A0008F929F92AF92BF92CF92DF92EF92FF9258
:1030B0000F931F93CF93DF93CDB7DEB7CA1BDB0B04
:1030C0000FB6F894DEBF0FBECDBF09942A883988A9
:1030D00048885F846E847D848C849B84AA84B984B0
:1030E000C884DF80EE80FD800C811B81AA81B981BC
:1030F000CE0FD11D0FB6F894DEBF0FBECDBFED01D0
:063100000895F894FFCFD2
:1031060000008C022000000000010000000000000A
:10311600950C00000000000200000000830C000077
:103126000000000020C10000000000002041000057
:10313600A0410000F04100002042000048428AB051
:10314600D93FA089B03FD3DE903F89D27E3FCFF7EB
:10315600733FDBF96E3F4C37693F3D2CC43FC520BA
:10316600A03FA1D6843F43AD693F97905F3F075F7D
:10317600583FF7E4513F75617274207765726B733F
:1031860000444854207374617465206D61636869F6
:103196006E6520627573790D0072656164696E678C
:1031A6002E2E2E0D0074656D7065726174757265D4
:1031B6003A2025642E256420430A0068756D6964EB
:1031C6006974793A2025642E25642025250A0A008B
:1031D6004448545F4552524F525F434845434B5310
:1031E600554D200D004448545F4552524F525F4E94
:1031F6004F545F524553504F4E44200D00414443B7
:1032060020005245532000564F4C2000726F20205C
:103216002020202020200070706D5F726F4465664C
:103226002000726F5448202020202020202000708B
:10323600706D5F726F544844656620006C6F7261F2
:1032460020646174613A002564007478206D6F64AF
:1032560065206F6E20006E6F772072656164696EFF
:10326600672073656E736F7220646174612E2E2EF3
:02327600000056
:00000001FF
